{
  "contractName": "WorkerDescriptionRegistry",
  "abi": [
    {
      "constant": false,
      "inputs": [],
      "name": "unpause",
      "outputs": [],
      "payable": false,
      "stateMutability": "nonpayable",
      "type": "function"
    },
    {
      "constant": true,
      "inputs": [],
      "name": "paused",
      "outputs": [
        {
          "name": "",
          "type": "bool"
        }
      ],
      "payable": false,
      "stateMutability": "view",
      "type": "function"
    },
    {
      "constant": false,
      "inputs": [],
      "name": "pause",
      "outputs": [],
      "payable": false,
      "stateMutability": "nonpayable",
      "type": "function"
    },
    {
      "constant": true,
      "inputs": [],
      "name": "owner",
      "outputs": [
        {
          "name": "",
          "type": "address"
        }
      ],
      "payable": false,
      "stateMutability": "view",
      "type": "function"
    },
    {
      "constant": true,
      "inputs": [
        {
          "name": "",
          "type": "uint256"
        }
      ],
      "name": "idToWorkerDescription",
      "outputs": [
        {
          "name": "workerOwner",
          "type": "address"
        },
        {
          "name": "ipfsURI",
          "type": "string"
        },
        {
          "name": "index",
          "type": "uint256"
        },
        {
          "name": "id",
          "type": "uint256"
        }
      ],
      "payable": false,
      "stateMutability": "view",
      "type": "function"
    },
    {
      "constant": true,
      "inputs": [
        {
          "name": "",
          "type": "address"
        }
      ],
      "name": "addressToId",
      "outputs": [
        {
          "name": "",
          "type": "uint256"
        }
      ],
      "payable": false,
      "stateMutability": "view",
      "type": "function"
    },
    {
      "constant": false,
      "inputs": [
        {
          "name": "newOwner",
          "type": "address"
        }
      ],
      "name": "transferOwnership",
      "outputs": [],
      "payable": false,
      "stateMutability": "nonpayable",
      "type": "function"
    },
    {
      "constant": true,
      "inputs": [
        {
          "name": "",
          "type": "uint256"
        }
      ],
      "name": "ids",
      "outputs": [
        {
          "name": "",
          "type": "uint256"
        }
      ],
      "payable": false,
      "stateMutability": "view",
      "type": "function"
    },
    {
      "inputs": [],
      "payable": false,
      "stateMutability": "nonpayable",
      "type": "constructor"
    },
    {
      "anonymous": false,
      "inputs": [],
      "name": "Pause",
      "type": "event"
    },
    {
      "anonymous": false,
      "inputs": [],
      "name": "Unpause",
      "type": "event"
    },
    {
      "anonymous": false,
      "inputs": [
        {
          "indexed": true,
          "name": "previousOwner",
          "type": "address"
        },
        {
          "indexed": true,
          "name": "newOwner",
          "type": "address"
        }
      ],
      "name": "OwnershipTransferred",
      "type": "event"
    },
    {
      "constant": false,
      "inputs": [
        {
          "name": "ipfsURI",
          "type": "string"
        }
      ],
      "name": "addWorkDescription",
      "outputs": [],
      "payable": false,
      "stateMutability": "nonpayable",
      "type": "function"
    },
    {
      "constant": false,
      "inputs": [
        {
          "name": "id",
          "type": "uint256"
        }
      ],
      "name": "removeWorkerDescription",
      "outputs": [],
      "payable": false,
      "stateMutability": "nonpayable",
      "type": "function"
    },
    {
      "constant": false,
      "inputs": [
        {
          "name": "ipfsURI",
          "type": "string"
        },
        {
          "name": "id",
          "type": "uint256"
        }
      ],
      "name": "updateWorkerDescription",
      "outputs": [],
      "payable": false,
      "stateMutability": "nonpayable",
      "type": "function"
    }
  ],
  "bytecode": "0x60806040526000805460a060020a60ff021916905534801561002057600080fd5b5060008054600160a060020a03191633178155600380546001810182559082527fc2575a0e9e593c00f959f8c92f12db2869c3395a3b0502d05e2516446f71f85b0155610977806100726000396000f3006080604052600436106100ae5763ffffffff7c010000000000000000000000000000000000000000000000000000000060003504166318299d6b81146100b3578063191f7deb146100cd5780633f4ba83a14610126578063487739e81461013b5780635c975abb146101965780638456cb59146101bf5780638da5cb5b146101d45780639541ee9f14610205578063cb0e0d7d146102bc578063f2fde38b146102ef578063fac333ac14610310575b600080fd5b3480156100bf57600080fd5b506100cb600435610328565b005b3480156100d957600080fd5b506040805160206004803580820135601f81018490048402850184019095528484526100cb94369492936024939284019190819084018382808284375094975061041a9650505050505050565b34801561013257600080fd5b506100cb61054f565b34801561014757600080fd5b506040805160206004803580820135601f81018490048402850184019095528484526100cb94369492936024939284019190819084018382808284375094975050933594506105c59350505050565b3480156101a257600080fd5b506101ab610639565b604080519115158252519081900360200190f35b3480156101cb57600080fd5b506100cb610649565b3480156101e057600080fd5b506101e96106c4565b60408051600160a060020a039092168252519081900360200190f35b34801561021157600080fd5b5061021d6004356106d3565b6040518085600160a060020a0316600160a060020a0316815260200180602001848152602001838152602001828103825285818151815260200191508051906020019080838360005b8381101561027e578181015183820152602001610266565b50505050905090810190601f1680156102ab5780820380516001836020036101000a031916815260200191505b509550505050505060405180910390f35b3480156102c857600080fd5b506102dd600160a060020a0360043516610790565b60408051918252519081900360200190f35b3480156102fb57600080fd5b506100cb600160a060020a03600435166107a2565b34801561031c57600080fd5b506102dd600435610836565b600081815260026020526040812054819081908490600160a060020a0316331461035157600080fd5b60005460a060020a900460ff161561036857600080fd5b600085815260026020819052604090912001546003805491955090600019810190811061039157fe5b90600052602060002001549250826003858154811015156103ae57fe5b600091825260208083209091019290925584815260028083526040808320918201889055338352600190935291812055600380549193509060001981019081106103f457fe5b60009182526020822001556003805490610412906000198301610855565b505050505050565b60008061042561087e565b60005460a060020a900460ff161561043c57600080fd5b8351151561044957600080fd5b3360009081526001602090815260408083205483526002909152902054600160a060020a03161561047957600080fd5b50506003805460018082019092557fc2575a0e9e593c00f959f8c92f12db2869c3395a3b0502d05e2516446f71f85b810181905560408051608081018252338152602080820187815282840185905260608301859052600085815260028352939093208251815473ffffffffffffffffffffffffffffffffffffffff1916600160a060020a039091161781559251805194965086959294859493610522939085019201906108b0565b50604082810151600283015560609092015160039091015533600090815260016020522092909255505050565b600054600160a060020a0316331461056657600080fd5b60005460a060020a900460ff16151561057e57600080fd5b6000805474ff0000000000000000000000000000000000000000191681556040517f7805862f689e2f13df9f062ff482ad3ad112aca9e0847911ed832e158c525b339190a1565b6000818152600260205260409020548190600160a060020a031633146105ea57600080fd5b60005460a060020a900460ff161561060157600080fd5b8251151561060e57600080fd5b60008281526002602090815260409091208451610633926001909201918601906108b0565b50505050565b60005460a060020a900460ff1681565b600054600160a060020a0316331461066057600080fd5b60005460a060020a900460ff161561067757600080fd5b6000805474ff0000000000000000000000000000000000000000191660a060020a1781556040517f6985a02210a168e66602d3235cb6db0e70f92b3ba4d376a33c0f3d9434bff6259190a1565b600054600160a060020a031681565b6002602081815260009283526040928390208054600180830180548751601f60001994831615610100029490940190911696909604918201859004850286018501909652808552600160a060020a039091169491939283018282801561077a5780601f1061074f5761010080835404028352916020019161077a565b820191906000526020600020905b81548152906001019060200180831161075d57829003601f168201915b5050505050908060020154908060030154905084565b60016020526000908152604090205481565b600054600160a060020a031633146107b957600080fd5b600160a060020a03811615156107ce57600080fd5b60008054604051600160a060020a03808516939216917f8be0079c531659141344cd1fd0a4f28419497f9722a3daafe3b4186f6b6457e091a36000805473ffffffffffffffffffffffffffffffffffffffff1916600160a060020a0392909216919091179055565b600380548290811061084457fe5b600091825260209091200154905081565b8154818355818111156108795760008381526020902061087991810190830161092e565b505050565b6080604051908101604052806000600160a060020a031681526020016060815260200160008152602001600081525090565b828054600181600116156101000203166002900490600052602060002090601f016020900481019282601f106108f157805160ff191683800117855561091e565b8280016001018555821561091e579182015b8281111561091e578251825591602001919060010190610903565b5061092a92915061092e565b5090565b61094891905b8082111561092a5760008155600101610934565b905600a165627a7a723058202dc0fe829b23a2fdf4076d6ca7dab19897c7309e3449acda5c5914ed6c2267fa0029",
  "source": "pragma solidity ^0.4.21;\n\nimport \"zeppelin-solidity/contracts/lifecycle/Pausable.sol\";\n\ncontract WorkerDescriptionRegistry is Pausable {\n\n  struct WorkerDescription {\n      address workerOwner;\n      string ipfsURI;\n      uint256 index;\n      uint256 id;\n  }\n\n\n  mapping (address => uint256) public addressToId;\n  mapping (uint256 => WorkerDescription) public idToWorkerDescription;\n\n  uint256[] public ids;\n\n  modifier onlyWorkerDescriptionOwner(uint256 id) {\n    require(msg.sender == idToWorkerDescription[id].workerOwner);\n    _;\n  }\n\n  constructor() {\n    // push zero to avoid worker descriptions with zero ids\n    ids.push(0);\n  }\n\n  /**\n  * Adds new worker description\n  * @param ipfsURI - SHA2-256 IPFS hash for worker description json\n  */\n\n  function addWorkDescription(string ipfsURI) public whenNotPaused {\n    require(bytes(ipfsURI).length != 0);\n    require(idToWorkerDescription[addressToId[msg.sender]].workerOwner == address(0));\n\n    uint256 id = ids.length;\n    uint256 index = ids.push(id) - 1;\n\n    WorkerDescription memory wd = WorkerDescription(msg.sender, ipfsURI, index, index);\n\n    idToWorkerDescription[id] = wd;\n    addressToId[msg.sender] = id;\n  }\n\n  /**\n  * Removes worker description\n  * @param id - worker description library\n  */\n\n  function removeWorkerDescription(uint256 id) public onlyWorkerDescriptionOwner(id) whenNotPaused {\n\n    uint256 indexToRemove = idToWorkerDescription[id].index;\n    uint256 replacementId = ids[ids.length - 1];\n\n    ids[indexToRemove] = replacementId;\n    WorkerDescription storage wd = idToWorkerDescription[replacementId];\n    wd.index = indexToRemove;\n\n    delete addressToId[msg.sender];\n    delete ids[ids.length - 1];\n\n    ids.length--;\n}\n\n  /**\n  * Update worker description with a new ipfs uri\n  * @param ipfsURI - SHA2-256 IPFS hash for worker description json\n  */\n\n  function updateWorkerDescription(string ipfsURI, uint256 id) public onlyWorkerDescriptionOwner(id) whenNotPaused {\n    require(bytes(ipfsURI).length != 0);\n\n    idToWorkerDescription[id].ipfsURI = ipfsURI;\n  }\n\n}\n",
  "sourcePath": "/home/user/Projects/worker-registry/truffle/contracts/WorkerDescriptionRegistry.sol",
  "compiler": {
    "name": "solc",
    "version": "0.4.24+commit.e67f0147.Emscripten.clang"
  },
  "schemaVersion": "2.0.0",
  "updatedAt": "2018-06-26T10:39:16.594Z"
}