{
  "contractName": "WorkerDescriptionRegistry",
  "abi": [
    {
      "constant": false,
      "inputs": [],
      "name": "unpause",
      "outputs": [],
      "payable": false,
      "stateMutability": "nonpayable",
      "type": "function"
    },
    {
      "constant": true,
      "inputs": [],
      "name": "paused",
      "outputs": [
        {
          "name": "",
          "type": "bool"
        }
      ],
      "payable": false,
      "stateMutability": "view",
      "type": "function"
    },
    {
      "constant": false,
      "inputs": [],
      "name": "pause",
      "outputs": [],
      "payable": false,
      "stateMutability": "nonpayable",
      "type": "function"
    },
    {
      "constant": true,
      "inputs": [],
      "name": "owner",
      "outputs": [
        {
          "name": "",
          "type": "address"
        }
      ],
      "payable": false,
      "stateMutability": "view",
      "type": "function"
    },
    {
      "constant": true,
      "inputs": [
        {
          "name": "",
          "type": "uint256"
        }
      ],
      "name": "idToWorkerDescription",
      "outputs": [
        {
          "name": "workerOwner",
          "type": "address"
        },
        {
          "name": "ipfsURI",
          "type": "string"
        },
        {
          "name": "index",
          "type": "uint256"
        },
        {
          "name": "id",
          "type": "uint256"
        }
      ],
      "payable": false,
      "stateMutability": "view",
      "type": "function"
    },
    {
      "constant": true,
      "inputs": [
        {
          "name": "",
          "type": "address"
        }
      ],
      "name": "addressToId",
      "outputs": [
        {
          "name": "",
          "type": "uint256"
        }
      ],
      "payable": false,
      "stateMutability": "view",
      "type": "function"
    },
    {
      "constant": false,
      "inputs": [
        {
          "name": "newOwner",
          "type": "address"
        }
      ],
      "name": "transferOwnership",
      "outputs": [],
      "payable": false,
      "stateMutability": "nonpayable",
      "type": "function"
    },
    {
      "constant": true,
      "inputs": [
        {
          "name": "",
          "type": "uint256"
        }
      ],
      "name": "ids",
      "outputs": [
        {
          "name": "",
          "type": "uint256"
        }
      ],
      "payable": false,
      "stateMutability": "view",
      "type": "function"
    },
    {
      "inputs": [],
      "payable": false,
      "stateMutability": "nonpayable",
      "type": "constructor"
    },
    {
      "anonymous": false,
      "inputs": [
        {
          "indexed": true,
          "name": "owner",
          "type": "address"
        },
        {
          "indexed": false,
          "name": "ipfsURI",
          "type": "string"
        }
      ],
      "name": "AddedWorkerDescription",
      "type": "event"
    },
    {
      "anonymous": false,
      "inputs": [
        {
          "indexed": true,
          "name": "owner",
          "type": "address"
        },
        {
          "indexed": true,
          "name": "id",
          "type": "uint256"
        }
      ],
      "name": "RemovedWorkerDescription",
      "type": "event"
    },
    {
      "anonymous": false,
      "inputs": [
        {
          "indexed": true,
          "name": "owner",
          "type": "address"
        },
        {
          "indexed": true,
          "name": "id",
          "type": "uint256"
        },
        {
          "indexed": false,
          "name": "ipfsURI",
          "type": "string"
        }
      ],
      "name": "UpdatedWorkerDescription",
      "type": "event"
    },
    {
      "anonymous": false,
      "inputs": [],
      "name": "Pause",
      "type": "event"
    },
    {
      "anonymous": false,
      "inputs": [],
      "name": "Unpause",
      "type": "event"
    },
    {
      "anonymous": false,
      "inputs": [
        {
          "indexed": true,
          "name": "previousOwner",
          "type": "address"
        },
        {
          "indexed": true,
          "name": "newOwner",
          "type": "address"
        }
      ],
      "name": "OwnershipTransferred",
      "type": "event"
    },
    {
      "constant": false,
      "inputs": [
        {
          "name": "ipfsURI",
          "type": "string"
        }
      ],
      "name": "addWorkerDescription",
      "outputs": [],
      "payable": false,
      "stateMutability": "nonpayable",
      "type": "function"
    },
    {
      "constant": false,
      "inputs": [
        {
          "name": "id",
          "type": "uint256"
        }
      ],
      "name": "removeWorkerDescription",
      "outputs": [],
      "payable": false,
      "stateMutability": "nonpayable",
      "type": "function"
    },
    {
      "constant": false,
      "inputs": [
        {
          "name": "id",
          "type": "uint256"
        },
        {
          "name": "ipfsURI",
          "type": "string"
        }
      ],
      "name": "updateWorkerDescription",
      "outputs": [],
      "payable": false,
      "stateMutability": "nonpayable",
      "type": "function"
    },
    {
      "constant": true,
      "inputs": [],
      "name": "getWorkerOwnerAddresses",
      "outputs": [
        {
          "name": "",
          "type": "address[]"
        }
      ],
      "payable": false,
      "stateMutability": "view",
      "type": "function"
    }
  ],
  "bytecode": "0x60806040526000805460a060020a60ff021916905534801561002057600080fd5b5060008054600160a060020a03191633178155600380546001810182559082527fc2575a0e9e593c00f959f8c92f12db2869c3395a3b0502d05e2516446f71f85b0155610c84806100726000396000f3006080604052600436106100b95763ffffffff7c010000000000000000000000000000000000000000000000000000000060003504166318299d6b81146100be5780631ec0802f146100d85780633f4ba83a1461013d5780634c78b0ff146101525780635c975abb146101ab5780638456cb59146101d45780638b3cfa70146101e95780638da5cb5b146102475780639541ee9f14610278578063cb0e0d7d1461032f578063f2fde38b14610362578063fac333ac14610383575b600080fd5b3480156100ca57600080fd5b506100d660043561039b565b005b3480156100e457600080fd5b506100ed61050e565b60408051602080825283518183015283519192839290830191858101910280838360005b83811015610129578181015183820152602001610111565b505050509050019250505060405180910390f35b34801561014957600080fd5b506100d66105be565b34801561015e57600080fd5b506040805160206004803580820135601f81018490048402850184019095528484526100d69436949293602493928401919081908401838280828437509497506106349650505050505050565b3480156101b757600080fd5b506101c061081c565b604080519115158252519081900360200190f35b3480156101e057600080fd5b506100d661082c565b3480156101f557600080fd5b5060408051602060046024803582810135601f81018590048502860185019096528585526100d69583359536956044949193909101919081908401838280828437509497506108a79650505050505050565b34801561025357600080fd5b5061025c6109bf565b60408051600160a060020a039092168252519081900360200190f35b34801561028457600080fd5b506102906004356109ce565b6040518085600160a060020a0316600160a060020a0316815260200180602001848152602001838152602001828103825285818151815260200191508051906020019080838360005b838110156102f15781810151838201526020016102d9565b50505050905090810190601f16801561031e5780820380516001836020036101000a031916815260200191505b509550505050505060405180910390f35b34801561033b57600080fd5b50610350600160a060020a0360043516610a8b565b60408051918252519081900360200190f35b34801561036e57600080fd5b506100d6600160a060020a0360043516610a9d565b34801561038f57600080fd5b50610350600435610b31565b600081815260026020526040812054819081908490600160a060020a031633146103c457600080fd5b60005460a060020a900460ff16156103db57600080fd5b60008581526002602081905260409091200154600380549195509061040790600163ffffffff610b5016565b8154811061041157fe5b600091825260208083209091015487835260029091526040909120805473ffffffffffffffffffffffffffffffffffffffff191690556003805491945084918690811061045a57fe5b60009182526020808320909101929092558481526002808352604080832091820188905533835260019384905282209190915560038054919450916104a5919063ffffffff610b5016565b815481106104af57fe5b60009182526020822001556003546104ce90600163ffffffff610b5016565b6104d9600382610b62565b50604051859033907f7eafe055cde309947a9803aed08f7c83feb02edc24671f2c4082724ec6deb7fe90600090a35050505050565b600354606090819060009061052a90600163ffffffff610b5016565b604051908082528060200260200182016040528015610553578160200160208202803883390190505b509150600190505b6003548110156105b857600081815260026020526040902054600160a060020a03168261058f83600163ffffffff610b5016565b8151811061059957fe5b600160a060020a0390921660209283029091019091015260010161055b565b50919050565b600054600160a060020a031633146105d557600080fd5b60005460a060020a900460ff1615156105ed57600080fd5b6000805474ff0000000000000000000000000000000000000000191681556040517f7805862f689e2f13df9f062ff482ad3ad112aca9e0847911ed832e158c525b339190a1565b60008061063f610b8b565b60005460a060020a900460ff161561065657600080fd5b8351151561066357600080fd5b3360009081526001602090815260408083205483526002909152902054600160a060020a03161561069357600080fd5b6003805460018082018084556000939093527fc2575a0e9e593c00f959f8c92f12db2869c3395a3b0502d05e2516446f71f85b82018290559094506106de919063ffffffff610b5016565b60408051608081018252338152602080820188815282840185905260608301859052600088815260028352939093208251815473ffffffffffffffffffffffffffffffffffffffff1916600160a060020a039091161781559251805194965091945084936107529260018501920190610bbd565b506040828101516002830155606090920151600390910155336000818152600160209081528382208790558351818152885181830152885193947f4a173358591e5546f77b6a909210b68a09cb018822e0de3b0825cdcd58989822948a94929384939284019290860191908190849084905b838110156107dc5781810151838201526020016107c4565b50505050905090810190601f1680156108095780820380516001836020036101000a031916815260200191505b509250505060405180910390a250505050565b60005460a060020a900460ff1681565b600054600160a060020a0316331461084357600080fd5b60005460a060020a900460ff161561085a57600080fd5b6000805474ff0000000000000000000000000000000000000000191660a060020a1781556040517f6985a02210a168e66602d3235cb6db0e70f92b3ba4d376a33c0f3d9434bff6259190a1565b6000828152600260205260409020548290600160a060020a031633146108cc57600080fd5b60005460a060020a900460ff16156108e357600080fd5b815115156108f057600080fd5b6000838152600260209081526040909120835161091592600190920191850190610bbd565b508233600160a060020a03167f47628469352a9ae69be8c4219a15b6326c35ec7ac2a13340ed29533a6e647326846040518080602001828103825283818151815260200191508051906020019080838360005b83811015610980578181015183820152602001610968565b50505050905090810190601f1680156109ad5780820380516001836020036101000a031916815260200191505b509250505060405180910390a3505050565b600054600160a060020a031681565b6002602081815260009283526040928390208054600180830180548751601f60001994831615610100029490940190911696909604918201859004850286018501909652808552600160a060020a0390911694919392830182828015610a755780601f10610a4a57610100808354040283529160200191610a75565b820191906000526020600020905b815481529060010190602001808311610a5857829003601f168201915b5050505050908060020154908060030154905084565b60016020526000908152604090205481565b600054600160a060020a03163314610ab457600080fd5b600160a060020a0381161515610ac957600080fd5b60008054604051600160a060020a03808516939216917f8be0079c531659141344cd1fd0a4f28419497f9722a3daafe3b4186f6b6457e091a36000805473ffffffffffffffffffffffffffffffffffffffff1916600160a060020a0392909216919091179055565b6003805482908110610b3f57fe5b600091825260209091200154905081565b600082821115610b5c57fe5b50900390565b815481835581811115610b8657600083815260209020610b86918101908301610c3b565b505050565b6080604051908101604052806000600160a060020a031681526020016060815260200160008152602001600081525090565b828054600181600116156101000203166002900490600052602060002090601f016020900481019282601f10610bfe57805160ff1916838001178555610c2b565b82800160010185558215610c2b579182015b82811115610c2b578251825591602001919060010190610c10565b50610c37929150610c3b565b5090565b610c5591905b80821115610c375760008155600101610c41565b905600a165627a7a72305820ea57284363059b15eca9f39f6d975ff807dbe80a75ee24a8b83cf4c9617506c10029",
  "source": "pragma solidity ^0.4.21;\n\nimport \"zeppelin-solidity/contracts/lifecycle/Pausable.sol\";\nimport \"zeppelin-solidity/contracts/math/SafeMath.sol\";\n\ncontract WorkerDescriptionRegistry is Pausable {\n  using SafeMath for uint256;\n\n  struct WorkerDescription {\n    address workerOwner;\n    string ipfsURI;\n    uint256 index;\n    uint256 id;\n  }\n\n\n  mapping (address => uint256) public addressToId;\n  mapping (uint256 => WorkerDescription) public idToWorkerDescription;\n\n  uint256[] public ids;\n\n  event AddedWorkerDescription(\n    address indexed owner,\n    string ipfsURI\n  );\n\n  event RemovedWorkerDescription(\n    address indexed owner,\n    uint256 indexed id\n  );\n\n  event UpdatedWorkerDescription(\n    address indexed owner,\n    uint256 indexed id,\n    string ipfsURI\n  );\n\n  modifier onlyWorkerDescriptionOwner(uint256 id) {\n    require(msg.sender == idToWorkerDescription[id].workerOwner);\n    _;\n  }\n\n  constructor() public {\n    // push zero to avoid worker descriptions with zero ids\n    ids.push(0);\n  }\n\n  /**\n   * Adds new worker description\n   * @param ipfsURI - SHA2-256 IPFS hash for worker description json\n   */\n  function addWorkerDescription(string ipfsURI) public whenNotPaused {\n    require(bytes(ipfsURI).length != 0);\n    require(idToWorkerDescription[addressToId[msg.sender]].workerOwner == address(0));\n\n    uint256 id = ids.length;\n    uint256 index = ids.push(id).sub(1);\n\n    WorkerDescription memory wd = WorkerDescription(msg.sender, ipfsURI, index, index);\n\n    idToWorkerDescription[id] = wd;\n    addressToId[msg.sender] = id;\n\n    emit AddedWorkerDescription(msg.sender, ipfsURI);\n  }\n\n  /**\n   * Removes worker description\n   * @param id - Worker description id\n   */\n  function removeWorkerDescription(uint256 id) public onlyWorkerDescriptionOwner(id) whenNotPaused {\n    uint256 indexToRemove = idToWorkerDescription[id].index;\n    uint256 replacementId = ids[ids.length.sub(1)];\n\n    idToWorkerDescription[id].workerOwner = address(0);\n\n    ids[indexToRemove] = replacementId;\n    WorkerDescription storage wd = idToWorkerDescription[replacementId];\n    wd.index = indexToRemove;\n\n    delete addressToId[msg.sender];\n    delete ids[ids.length.sub(1)];\n\n    ids.length = ids.length.sub(1);\n\n    emit RemovedWorkerDescription(msg.sender, id);\n  }\n\n  /**\n   * Update worker description with a new ipfs uri\n   * @param id - Worker description id\n   * @param ipfsURI - SHA2-256 IPFS hash for worker description json\n   */\n  function updateWorkerDescription(uint256 id, string ipfsURI) public onlyWorkerDescriptionOwner(id) whenNotPaused {\n    require(bytes(ipfsURI).length != 0);\n\n    idToWorkerDescription[id].ipfsURI = ipfsURI;\n\n    emit UpdatedWorkerDescription(msg.sender, id, ipfsURI);\n  }\n\n  /**\n   * Retrieve all addresses registered as a worker owner\n   * @return addresses with a registered worker\n   */\n  function getWorkerOwnerAddresses() public view returns (address[]) {\n    address[] memory ret = new address[](ids.length.sub(1));\n    for (uint256 i = 1; i < ids.length; i++) {\n      ret[i.sub(1)] = idToWorkerDescription[i].workerOwner;\n    }\n\n    return ret;\n  }\n\n}\n",
  "sourcePath": "/home/user/Projects/worker-registry/truffle/contracts/WorkerDescriptionRegistry.sol",
  "compiler": {
    "name": "solc",
    "version": "0.4.24+commit.e67f0147.Emscripten.clang"
  },
  "schemaVersion": "2.0.0",
  "updatedAt": "2018-07-30T23:50:29.243Z"
}